{
  "contractName": "Aavetrage",
  "abi": [
    {
      "inputs": [
        {
          "internalType": "address",
          "name": "_provider",
          "type": "address"
        },
        {
          "internalType": "address",
          "name": "_dai",
          "type": "address"
        }
      ],
      "stateMutability": "nonpayable",
      "type": "constructor"
    },
    {
      "inputs": [],
      "name": "peek",
      "outputs": [
        {
          "internalType": "address[]",
          "name": "",
          "type": "address[]"
        }
      ],
      "stateMutability": "nonpayable",
      "type": "function"
    }
  ],
  "bytecode": "0x608060405234801561001057600080fd5b506040516102c43803806102c48339818101604052604081101561003357600080fd5b508051602090910151600080546001600160a01b039384166001600160a01b0319918216179091556001805493909216921691909117905561024a8061007a6000396000f3fe608060405234801561001057600080fd5b506004361061002b5760003560e01c806359e02dd714610030575b600080fd5b610038610088565b60408051602080825283518183015283519192839290830191858101910280838360005b8381101561007457818101518382015260200161005c565b505050509050019250505060405180910390f35b6000805460408051630261bf8b60e01b81529051606093926001600160a01b031691630261bf8b916004808301926020929190829003018186803b1580156100cf57600080fd5b505afa1580156100e3573d6000803e3d6000fd5b505050506040513d60208110156100f957600080fd5b5051604080516334651b6f60e21b815290519192506060916001600160a01b0384169163d1946dbc916004808301926000929190829003018186803b15801561014157600080fd5b505afa158015610155573d6000803e3d6000fd5b505050506040513d6000823e601f3d908101601f19168201604052602081101561017e57600080fd5b810190808051604051939291908464010000000082111561019e57600080fd5b9083019060208201858111156101b357600080fd5b82518660208202830111640100000000821117156101d057600080fd5b82525081516020918201928201910280838360005b838110156101fd5781810151838201526020016101e5565b50505050905001604052505050905080925050509056fea264697066735822122008c23d573d5e7fee65ba380b64e310f6a1903d882e5e01398f8d74ab551fb5b164736f6c634300060c0033",
  "immutableReferences": {},
  "source": "// SPDX-License-Identifier: MIT\npragma solidity 0.6.12;\nimport {LendingPool} from \"@aave/protocol-v2/contracts/protocol/lendingpool/LendingPool.sol\";\nimport {LendingPoolAddressesProvider} from \"@aave/protocol-v2/contracts/protocol/configuration/LendingPoolAddressesProvider.sol\";\n\ncontract Aavetrage {\n    \n    LendingPoolAddressesProvider provider;\n    address dai;\n    \n    constructor(address _provider, address _dai) public {\n        provider = LendingPoolAddressesProvider(_provider);\n        dai = _dai;\n    }\n    \n    function peek() external returns(address[] memory) {\n        LendingPool lendingPool = LendingPool(provider.getLendingPool());\n        address[] memory activeReserves = lendingPool.getReservesList();\n        return activeReserves;\n    }\n    \n    // function guap() external {\n        \n    // }\n    \n    // function shut() external {\n        \n    // }\n    \n}",
  "sourcePath": "C:/Users/kam/playground/dev/canvas2020/greenwood-labs/contracts/Aavetrage.sol",
  "compiler": {
    "name": "solc",
    "version": "0.6.12+commit.27d51765.Emscripten.clang"
  },
  "schemaVersion": "3.4.1",
  "updatedAt": "2021-05-15T19:28:04.050Z",
  "devdoc": {
    "kind": "dev",
    "methods": {},
    "version": 1
  },
  "userdoc": {
    "kind": "user",
    "methods": {},
    "version": 1
  }
}