{
  "contractName": "GenericLogic",
  "abi": [
    {
      "inputs": [],
      "name": "HEALTH_FACTOR_LIQUIDATION_THRESHOLD",
      "outputs": [
        {
          "internalType": "uint256",
          "name": "",
          "type": "uint256"
        }
      ],
      "stateMutability": "view",
      "type": "function"
    }
  ],
  "bytecode": "0x610e75610026600b82828239805160001a60731461001957fe5b30600052607381538281f3fe73000000000000000000000000000000000000000030146080604052600436106100405760003560e01c8063c3525c2814610045578063e617042414610063575b600080fd5b61004d610083565b60405161005a9190610e36565b60405180910390f35b610076610071366004610c6f565b61008f565b60405161005a9190610d60565b670de0b6b3a764000081565b60006100a86100a336879003870187610cf7565b6102be565b15806100f057506001600160a01b0389166000908152602087905260409020600701546100ee90600160a01b900460ff166100e836889003880188610cf7565b906102e6565b155b156100fd575060016102b2565b610105610b69565b6001600160a01b038a16600090815260208890526040902061012690610348565b5084525060208301819052151590506101435760019150506102b2565b61015f8988610157368a90038a018a610cf7565b888888610373565b506080850152506060830181905260408301919091526101835760019150506102b2565b61021a8160000151600a0a6102148a866001600160a01b031663b3596f078f6040518263ffffffff1660e01b81526004016101be9190610d4c565b60206040518083038186803b1580156101d657600080fd5b505afa1580156101ea573d6000803e3d6000fd5b505050506040513d601f19601f8201168201806040525081019061020e9190610d34565b90610834565b90610875565b60a08201819052604082015161022f916108b7565b60c082018190526102445760009150506102b2565b6102838160c0015161021461026a84602001518560a0015161083490919063ffffffff16565b6080850151604086015161027d91610834565b906108b7565b60e0820181905260c082015160608301516000926102a29291906108f9565b670de0b6b3a76400001115925050505b98975050505050505050565b517f555555555555555555555555555555555555555555555555555555555555555516151590565b60006080821060405180604001604052806002815260200161373760f01b8152509061032e5760405162461bcd60e51b81526004016103259190610d6b565b60405180910390fd5b5050815160016002830281019190911c1615155b92915050565b5461ffff80821692601083901c821692602081901c831692603082901c60ff169260409290921c1690565b6000806000806000610383610bbe565b61038c8a610925565b156103aa576000806000806000199550955095509550955050610826565b600060e08201525b878160e0015110156107855760e08101516103ce908b9061092a565b6103d757610775565b60e0810151600090815260208a81526040808320546001600160a01b03166101e085018190528352908d9052902061040e81610348565b506080860181905260c08601929092525060a0840191909152600a0a60208301526101e082015160405163b3596f0760e01b81526001600160a01b038a169163b3596f07916104609190600401610d4c565b60206040518083038186803b15801561047857600080fd5b505afa15801561048c573d6000803e3d6000fd5b505050506040513d601f19601f820116820180604052508101906104b09190610d34565b825260c0820151158015906104d0575060e08201516104d0908c906102e6565b156105ee578060040160009054906101000a90046001600160a01b03166001600160a01b03166370a082318e6040518263ffffffff1660e01b81526004016105189190610d4c565b60206040518083038186803b15801561053057600080fd5b505afa158015610544573d6000803e3d6000fd5b505050506040513d601f19601f820116820180604052508101906105689190610d34565b6040830181905260208301518351600092610587929161021491610834565b61012084015190915061059a908261097b565b61012084015260a08301516105c0906105b4908390610834565b6101608501519061097b565b61016084015260c08301516105e6906105da908390610834565b6101808501519061097b565b610180840152505b60e08201516105fe908c906109a0565b15610773578060050160009054906101000a90046001600160a01b03166001600160a01b03166370a082318e6040518263ffffffff1660e01b81526004016106469190610d4c565b60206040518083038186803b15801561065e57600080fd5b505afa158015610672573d6000803e3d6000fd5b505050506040513d601f19601f820116820180604052508101906106969190610d34565b8260600181815250506107408160060160009054906101000a90046001600160a01b03166001600160a01b03166370a082318f6040518263ffffffff1660e01b81526004016106e59190610d4c565b60206040518083038186803b1580156106fd57600080fd5b505afa158015610711573d6000803e3d6000fd5b505050506040513d601f19601f820116820180604052508101906107359190610d34565b60608401519061097b565b606083018190526020830151835161076c92610760929161021491610834565b6101408401519061097b565b6101408301525b505b60e08101805160010190526103b2565b6000816101200151116107995760006107ae565b6101208101516101608201516107ae91610875565b6101608201526101208101516107c55760006107da565b6101208101516101808201516107da91610875565b61018082018190526101208201516101408301516107f7926108f9565b610100820181905261012082015161014083015161016084015161018090940151919850965091945090925090505b965096509650965096915050565b60008261084357506000610342565b8282028284828161085057fe5b041461086e5760405162461bcd60e51b815260040161032590610df5565b9392505050565b600061086e83836040518060400160405280601a81526020017f536166654d6174683a206469766973696f6e206279207a65726f0000000000008152506109f1565b600061086e83836040518060400160405280601e81526020017f536166654d6174683a207375627472616374696f6e206f766572666c6f770000815250610a28565b600082610909575060001961086e565b61091d836109178685610a54565b90610ac6565b949350505050565b511590565b60006080821060405180604001604052806002815260200161373760f01b815250906109695760405162461bcd60e51b81526004016103259190610d6b565b50509051600360029092021c16151590565b60008282018381101561086e5760405162461bcd60e51b815260040161032590610dbe565b60006080821060405180604001604052806002815260200161373760f01b815250906109df5760405162461bcd60e51b81526004016103259190610d6b565b50509051600160029092021c16151590565b60008183610a125760405162461bcd60e51b81526004016103259190610d6b565b506000838581610a1e57fe5b0495945050505050565b60008184841115610a4c5760405162461bcd60e51b81526004016103259190610d6b565b505050900390565b6000821580610a61575081155b15610a6e57506000610342565b816113881981610a7a57fe5b0483111560405180604001604052806002815260200161068760f31b81525090610ab75760405162461bcd60e51b81526004016103259190610d6b565b50506127109102611388010490565b604080518082019091526002815261035360f41b602082015260009082610b005760405162461bcd60e51b81526004016103259190610d6b565b5060408051808201909152600280825261068760f31b6020830152830490670de0b6b3a7640000821904851115610b4a5760405162461bcd60e51b81526004016103259190610d6b565b508281670de0b6b3a764000086020181610b6057fe5b04949350505050565b6040518061014001604052806000815260200160008152602001600081526020016000815260200160008152602001600081526020016000815260200160008152602001600081526020016000151581525090565b604051806102400160405280600081526020016000815260200160008152602001600081526020016000815260200160008152602001600081526020016000815260200160008152602001600081526020016000815260200160008152602001600081526020016000815260200160001515815260200160006001600160a01b031681526020016000151581526020016000151581525090565b80356001600160a01b038116811461034257600080fd5b600080600080600080600080888a03610100811215610c8c578485fd5b610c968b8b610c58565b9850610ca58b60208c01610c58565b975060408a0135965060608a013595506020607f1982011215610cc6578485fd5b5060808901935060a0890135925060c08901359150610ce88a60e08b01610c58565b90509295985092959890939650565b600060208284031215610d08578081fd5b6040516020810181811067ffffffffffffffff82111715610d27578283fd5b6040529135825250919050565b600060208284031215610d45578081fd5b5051919050565b6001600160a01b0391909116815260200190565b901515815260200190565b6000602080835283518082850152825b81811015610d9757858101830151858201604001528201610d7b565b81811115610da85783604083870101525b50601f01601f1916929092016040019392505050565b6020808252601b908201527f536166654d6174683a206164646974696f6e206f766572666c6f770000000000604082015260600190565b60208082526021908201527f536166654d6174683a206d756c7469706c69636174696f6e206f766572666c6f6040820152607760f81b606082015260800190565b9081526020019056fea264697066735822122070f0d3cb6f2ba2b223f082e7c200cd0a3aee49cc4240dba889cb36fb6915cb8464736f6c634300060c0033",
  "immutableReferences": {},
  "source": "// SPDX-License-Identifier: agpl-3.0\npragma solidity 0.6.12;\npragma experimental ABIEncoderV2;\n\nimport {SafeMath} from '../../../dependencies/openzeppelin/contracts/SafeMath.sol';\nimport {IERC20} from '../../../dependencies/openzeppelin/contracts/IERC20.sol';\nimport {ReserveLogic} from './ReserveLogic.sol';\nimport {ReserveConfiguration} from '../configuration/ReserveConfiguration.sol';\nimport {UserConfiguration} from '../configuration/UserConfiguration.sol';\nimport {WadRayMath} from '../math/WadRayMath.sol';\nimport {PercentageMath} from '../math/PercentageMath.sol';\nimport {IPriceOracleGetter} from '../../../interfaces/IPriceOracleGetter.sol';\nimport {DataTypes} from '../types/DataTypes.sol';\n\n/**\n * @title GenericLogic library\n * @author Aave\n * @title Implements protocol-level logic to calculate and validate the state of a user\n */\nlibrary GenericLogic {\n  using ReserveLogic for DataTypes.ReserveData;\n  using SafeMath for uint256;\n  using WadRayMath for uint256;\n  using PercentageMath for uint256;\n  using ReserveConfiguration for DataTypes.ReserveConfigurationMap;\n  using UserConfiguration for DataTypes.UserConfigurationMap;\n\n  uint256 public constant HEALTH_FACTOR_LIQUIDATION_THRESHOLD = 1 ether;\n\n  struct balanceDecreaseAllowedLocalVars {\n    uint256 decimals;\n    uint256 liquidationThreshold;\n    uint256 totalCollateralInETH;\n    uint256 totalDebtInETH;\n    uint256 avgLiquidationThreshold;\n    uint256 amountToDecreaseInETH;\n    uint256 collateralBalanceAfterDecrease;\n    uint256 liquidationThresholdAfterDecrease;\n    uint256 healthFactorAfterDecrease;\n    bool reserveUsageAsCollateralEnabled;\n  }\n\n  /**\n   * @dev Checks if a specific balance decrease is allowed\n   * (i.e. doesn't bring the user borrow position health factor under HEALTH_FACTOR_LIQUIDATION_THRESHOLD)\n   * @param asset The address of the underlying asset of the reserve\n   * @param user The address of the user\n   * @param amount The amount to decrease\n   * @param reservesData The data of all the reserves\n   * @param userConfig The user configuration\n   * @param reserves The list of all the active reserves\n   * @param oracle The address of the oracle contract\n   * @return true if the decrease of the balance is allowed\n   **/\n  function balanceDecreaseAllowed(\n    address asset,\n    address user,\n    uint256 amount,\n    mapping(address => DataTypes.ReserveData) storage reservesData,\n    DataTypes.UserConfigurationMap calldata userConfig,\n    mapping(uint256 => address) storage reserves,\n    uint256 reservesCount,\n    address oracle\n  ) external view returns (bool) {\n    if (!userConfig.isBorrowingAny() || !userConfig.isUsingAsCollateral(reservesData[asset].id)) {\n      return true;\n    }\n    \n    balanceDecreaseAllowedLocalVars memory vars;\n\n    (, vars.liquidationThreshold, , vars.decimals, ) = reservesData[asset]\n      .configuration\n      .getParams();\n\n    if (vars.liquidationThreshold == 0) {\n      return true; \n    }\n\n    (\n      vars.totalCollateralInETH,\n      vars.totalDebtInETH,\n      ,\n      vars.avgLiquidationThreshold,\n\n    ) = calculateUserAccountData(user, reservesData, userConfig, reserves, reservesCount, oracle);\n\n    if (vars.totalDebtInETH == 0) {\n      return true;\n    }\n\n    vars.amountToDecreaseInETH = IPriceOracleGetter(oracle).getAssetPrice(asset).mul(amount).div(\n      10**vars.decimals\n    );\n\n    vars.collateralBalanceAfterDecrease = vars.totalCollateralInETH.sub(vars.amountToDecreaseInETH);\n\n    //if there is a borrow, there can't be 0 collateral\n    if (vars.collateralBalanceAfterDecrease == 0) {\n      return false;\n    }\n\n    vars.liquidationThresholdAfterDecrease = vars\n      .totalCollateralInETH\n      .mul(vars.avgLiquidationThreshold)\n      .sub(vars.amountToDecreaseInETH.mul(vars.liquidationThreshold))\n      .div(vars.collateralBalanceAfterDecrease);\n\n    uint256 healthFactorAfterDecrease =\n      calculateHealthFactorFromBalances(\n        vars.collateralBalanceAfterDecrease,\n        vars.totalDebtInETH,\n        vars.liquidationThresholdAfterDecrease\n      );\n\n    return healthFactorAfterDecrease >= GenericLogic.HEALTH_FACTOR_LIQUIDATION_THRESHOLD;\n  }\n\n  struct CalculateUserAccountDataVars {\n    uint256 reserveUnitPrice;\n    uint256 tokenUnit;\n    uint256 compoundedLiquidityBalance;\n    uint256 compoundedBorrowBalance;\n    uint256 decimals;\n    uint256 ltv;\n    uint256 liquidationThreshold;\n    uint256 i;\n    uint256 healthFactor;\n    uint256 totalCollateralInETH;\n    uint256 totalDebtInETH;\n    uint256 avgLtv;\n    uint256 avgLiquidationThreshold;\n    uint256 reservesLength;\n    bool healthFactorBelowThreshold;\n    address currentReserveAddress;\n    bool usageAsCollateralEnabled;\n    bool userUsesReserveAsCollateral;\n  }\n\n  /**\n   * @dev Calculates the user data across the reserves.\n   * this includes the total liquidity/collateral/borrow balances in ETH,\n   * the average Loan To Value, the average Liquidation Ratio, and the Health factor.\n   * @param user The address of the user\n   * @param reservesData Data of all the reserves\n   * @param userConfig The configuration of the user\n   * @param reserves The list of the available reserves\n   * @param oracle The price oracle address\n   * @return The total collateral and total debt of the user in ETH, the avg ltv, liquidation threshold and the HF\n   **/\n  function calculateUserAccountData(\n    address user,\n    mapping(address => DataTypes.ReserveData) storage reservesData,\n    DataTypes.UserConfigurationMap memory userConfig,\n    mapping(uint256 => address) storage reserves,\n    uint256 reservesCount,\n    address oracle\n  )\n    internal\n    view\n    returns (\n      uint256,\n      uint256,\n      uint256,\n      uint256,\n      uint256\n    )\n  {\n    CalculateUserAccountDataVars memory vars;\n\n    if (userConfig.isEmpty()) {\n      return (0, 0, 0, 0, uint256(-1));\n    }\n    for (vars.i = 0; vars.i < reservesCount; vars.i++) {\n      if (!userConfig.isUsingAsCollateralOrBorrowing(vars.i)) {\n        continue;\n      }\n\n      vars.currentReserveAddress = reserves[vars.i];\n      DataTypes.ReserveData storage currentReserve = reservesData[vars.currentReserveAddress];\n\n      (vars.ltv, vars.liquidationThreshold, , vars.decimals, ) = currentReserve\n        .configuration\n        .getParams();\n\n      vars.tokenUnit = 10**vars.decimals;\n      vars.reserveUnitPrice = IPriceOracleGetter(oracle).getAssetPrice(vars.currentReserveAddress);\n\n      if (vars.liquidationThreshold != 0 && userConfig.isUsingAsCollateral(vars.i)) {\n        vars.compoundedLiquidityBalance = IERC20(currentReserve.aTokenAddress).balanceOf(user);\n\n        uint256 liquidityBalanceETH =\n          vars.reserveUnitPrice.mul(vars.compoundedLiquidityBalance).div(vars.tokenUnit);\n\n        vars.totalCollateralInETH = vars.totalCollateralInETH.add(liquidityBalanceETH);\n\n        vars.avgLtv = vars.avgLtv.add(liquidityBalanceETH.mul(vars.ltv));\n        vars.avgLiquidationThreshold = vars.avgLiquidationThreshold.add(\n          liquidityBalanceETH.mul(vars.liquidationThreshold)\n        );\n      }\n\n      if (userConfig.isBorrowing(vars.i)) {\n        vars.compoundedBorrowBalance = IERC20(currentReserve.stableDebtTokenAddress).balanceOf(\n          user\n        );\n        vars.compoundedBorrowBalance = vars.compoundedBorrowBalance.add(\n          IERC20(currentReserve.variableDebtTokenAddress).balanceOf(user)\n        );\n\n        vars.totalDebtInETH = vars.totalDebtInETH.add(\n          vars.reserveUnitPrice.mul(vars.compoundedBorrowBalance).div(vars.tokenUnit)\n        );\n      }\n    }\n\n    vars.avgLtv = vars.totalCollateralInETH > 0\n      ? vars.avgLtv.div(vars.totalCollateralInETH)\n      : 0;\n    vars.avgLiquidationThreshold = vars.totalCollateralInETH > 0\n      ? vars.avgLiquidationThreshold.div(vars.totalCollateralInETH)\n      : 0;\n\n    vars.healthFactor = calculateHealthFactorFromBalances(\n      vars.totalCollateralInETH,\n      vars.totalDebtInETH,\n      vars.avgLiquidationThreshold\n    );\n    return (\n      vars.totalCollateralInETH,\n      vars.totalDebtInETH,\n      vars.avgLtv,\n      vars.avgLiquidationThreshold,\n      vars.healthFactor\n    );\n  }\n\n  /**\n   * @dev Calculates the health factor from the corresponding balances\n   * @param totalCollateralInETH The total collateral in ETH\n   * @param totalDebtInETH The total debt in ETH\n   * @param liquidationThreshold The avg liquidation threshold\n   * @return The health factor calculated from the balances provided\n   **/\n  function calculateHealthFactorFromBalances(\n    uint256 totalCollateralInETH,\n    uint256 totalDebtInETH,\n    uint256 liquidationThreshold\n  ) internal pure returns (uint256) {\n    if (totalDebtInETH == 0) return uint256(-1);\n\n    return (totalCollateralInETH.percentMul(liquidationThreshold)).wadDiv(totalDebtInETH);\n  }\n\n  /**\n   * @dev Calculates the equivalent amount in ETH that an user can borrow, depending on the available collateral and the\n   * average Loan To Value\n   * @param totalCollateralInETH The total collateral in ETH\n   * @param totalDebtInETH The total borrow balance\n   * @param ltv The average loan to value\n   * @return the amount available to borrow in ETH for the user\n   **/\n\n  function calculateAvailableBorrowsETH(\n    uint256 totalCollateralInETH,\n    uint256 totalDebtInETH,\n    uint256 ltv\n  ) internal pure returns (uint256) {\n    \n    uint256 availableBorrowsETH = totalCollateralInETH.percentMul(ltv); \n\n    if (availableBorrowsETH < totalDebtInETH) {\n      return 0;\n    }\n\n    availableBorrowsETH = availableBorrowsETH.sub(totalDebtInETH);\n    return availableBorrowsETH;\n  }\n}\n",
  "sourcePath": "@aave\\protocol-v2\\contracts\\protocol\\libraries\\logic\\GenericLogic.sol",
  "compiler": {
    "name": "solc",
    "version": "0.6.12+commit.27d51765.Emscripten.clang"
  },
  "schemaVersion": "3.4.1",
  "updatedAt": "2021-05-15T18:00:25.054Z",
  "devdoc": {
    "author": "Aave",
    "kind": "dev",
    "methods": {
      "balanceDecreaseAllowed(address,address,uint256,mapping(address => DataTypes.ReserveData) storage,DataTypes.UserConfigurationMap,mapping(uint256 => address) storage,uint256,address)": {
        "details": "Checks if a specific balance decrease is allowed (i.e. doesn't bring the user borrow position health factor under HEALTH_FACTOR_LIQUIDATION_THRESHOLD)",
        "params": {
          "amount": "The amount to decrease",
          "asset": "The address of the underlying asset of the reserve",
          "oracle": "The address of the oracle contract",
          "reserves": "The list of all the active reserves",
          "reservesData": "The data of all the reserves",
          "user": "The address of the user",
          "userConfig": "The user configuration"
        },
        "returns": {
          "_0": "true if the decrease of the balance is allowed*"
        }
      }
    },
    "title": "GenericLogic libraryImplements protocol-level logic to calculate and validate the state of a user",
    "version": 1
  },
  "userdoc": {
    "kind": "user",
    "methods": {},
    "version": 1
  }
}